{
  "contractName": "Chaines",
  "abi": [
    {
      "inputs": [
        {
          "internalType": "string",
          "name": "nouveauMessage",
          "type": "string"
        }
      ],
      "name": "definirMessage",
      "outputs": [],
      "stateMutability": "nonpayable",
      "type": "function"
    },
    {
      "inputs": [],
      "name": "obtenirMessage",
      "outputs": [
        {
          "internalType": "string",
          "name": "",
          "type": "string"
        }
      ],
      "stateMutability": "view",
      "type": "function",
      "constant": true
    },
    {
      "inputs": [
        {
          "internalType": "string",
          "name": "texte",
          "type": "string"
        }
      ],
      "name": "longueur",
      "outputs": [
        {
          "internalType": "uint256",
          "name": "",
          "type": "uint256"
        }
      ],
      "stateMutability": "pure",
      "type": "function",
      "constant": true
    },
    {
      "inputs": [
        {
          "internalType": "string",
          "name": "a",
          "type": "string"
        },
        {
          "internalType": "string",
          "name": "b",
          "type": "string"
        }
      ],
      "name": "concatener",
      "outputs": [
        {
          "internalType": "string",
          "name": "",
          "type": "string"
        }
      ],
      "stateMutability": "pure",
      "type": "function",
      "constant": true
    },
    {
      "inputs": [
        {
          "internalType": "string",
          "name": "a",
          "type": "string"
        },
        {
          "internalType": "string",
          "name": "b",
          "type": "string"
        }
      ],
      "name": "comparer",
      "outputs": [
        {
          "internalType": "bool",
          "name": "",
          "type": "bool"
        }
      ],
      "stateMutability": "pure",
      "type": "function",
      "constant": true
    },
    {
      "inputs": [
        {
          "internalType": "string",
          "name": "texte",
          "type": "string"
        },
        {
          "internalType": "uint256",
          "name": "debut",
          "type": "uint256"
        },
        {
          "internalType": "uint256",
          "name": "fin",
          "type": "uint256"
        }
      ],
      "name": "decouper",
      "outputs": [
        {
          "internalType": "string",
          "name": "",
          "type": "string"
        }
      ],
      "stateMutability": "pure",
      "type": "function",
      "constant": true
    }
  ],
  "bytecode": "0x608060405234801561001057600080fd5b50610cc2806100206000396000f3fe608060405234801561001057600080fd5b50600436106100625760003560e01c806317646f89146100675780634f759687146100975780635b83c324146100c757806368512625146100e55780639103ca3314610115578063a244e03d14610145575b600080fd5b610081600480360381019061007c9190610535565b610161565b60405161008e91906105c8565b60405180910390f35b6100b160048036038101906100ac91906105e3565b61017c565b6040516100be9190610645565b60405180910390f35b6100cf610187565b6040516100dc91906106df565b60405180910390f35b6100ff60048036038101906100fa919061072d565b610219565b60405161010c91906106df565b60405180910390f35b61012f600480360381019061012a9190610535565b61039c565b60405161013c91906106df565b60405180910390f35b61015f600480360381019061015a91906105e3565b6103c8565b005b60008180519060200120838051906020012014905092915050565b600081519050919050565b606060008054610196906107cb565b80601f01602080910402602001604051908101604052809291908181526020018280546101c2906107cb565b801561020f5780601f106101e45761010080835404028352916020019161020f565b820191906000526020600020905b8154815290600101906020018083116101f257829003601f168201915b5050505050905090565b6060600084905082841115610263576040517f08c379a000000000000000000000000000000000000000000000000000000000815260040161025a90610848565b60405180910390fd5b80518311156102a7576040517f08c379a000000000000000000000000000000000000000000000000000000000815260040161029e906108b4565b60405180910390fd5b600084846102b59190610903565b67ffffffffffffffff8111156102ce576102cd61040a565b5b6040519080825280601f01601f1916602001820160405280156103005781602001600182028036833780820191505090505b50905060008590505b8481101561038f5782818151811061032457610323610937565b5b602001015160f81c60f81b82878361033c9190610903565b8151811061034d5761034c610937565b5b60200101907effffffffffffffffffffffffffffffffffffffffffffffffffffffffffffff1916908160001a905350808061038790610966565b915050610309565b5080925050509392505050565b606082826040516020016103b19291906109ea565b604051602081830303815290604052905092915050565b80600090816103d79190610bba565b5050565b6000604051905090565b600080fd5b600080fd5b600080fd5b600080fd5b6000601f19601f8301169050919050565b7f4e487b7100000000000000000000000000000000000000000000000000000000600052604160045260246000fd5b610442826103f9565b810181811067ffffffffffffffff821117156104615761046061040a565b5b80604052505050565b60006104746103db565b90506104808282610439565b919050565b600067ffffffffffffffff8211156104a05761049f61040a565b5b6104a9826103f9565b9050602081019050919050565b82818337600083830152505050565b60006104d86104d384610485565b61046a565b9050828152602081018484840111156104f4576104f36103f4565b5b6104ff8482856104b6565b509392505050565b600082601f83011261051c5761051b6103ef565b5b813561052c8482602086016104c5565b91505092915050565b6000806040838503121561054c5761054b6103e5565b5b600083013567ffffffffffffffff81111561056a576105696103ea565b5b61057685828601610507565b925050602083013567ffffffffffffffff811115610597576105966103ea565b5b6105a385828601610507565b9150509250929050565b60008115159050919050565b6105c2816105ad565b82525050565b60006020820190506105dd60008301846105b9565b92915050565b6000602082840312156105f9576105f86103e5565b5b600082013567ffffffffffffffff811115610617576106166103ea565b5b61062384828501610507565b91505092915050565b6000819050919050565b61063f8161062c565b82525050565b600060208201905061065a6000830184610636565b92915050565b600081519050919050565b600082825260208201905092915050565b60005b8381101561069a57808201518184015260208101905061067f565b60008484015250505050565b60006106b182610660565b6106bb818561066b565b93506106cb81856020860161067c565b6106d4816103f9565b840191505092915050565b600060208201905081810360008301526106f981846106a6565b905092915050565b61070a8161062c565b811461071557600080fd5b50565b60008135905061072781610701565b92915050565b600080600060608486031215610746576107456103e5565b5b600084013567ffffffffffffffff811115610764576107636103ea565b5b61077086828701610507565b935050602061078186828701610718565b925050604061079286828701610718565b9150509250925092565b7f4e487b7100000000000000000000000000000000000000000000000000000000600052602260045260246000fd5b600060028204905060018216806107e357607f821691505b6020821081036107f6576107f561079c565b5b50919050565b7f496e6469636520646562757420696e76616c6964650000000000000000000000600082015250565b600061083260158361066b565b915061083d826107fc565b602082019050919050565b6000602082019050818103600083015261086181610825565b9050919050565b7f496e646963652066696e20686f7273206c696d69746573000000000000000000600082015250565b600061089e60178361066b565b91506108a982610868565b602082019050919050565b600060208201905081810360008301526108cd81610891565b9050919050565b7f4e487b7100000000000000000000000000000000000000000000000000000000600052601160045260246000fd5b600061090e8261062c565b91506109198361062c565b9250828203905081811115610931576109306108d4565b5b92915050565b7f4e487b7100000000000000000000000000000000000000000000000000000000600052603260045260246000fd5b60006109718261062c565b91507fffffffffffffffffffffffffffffffffffffffffffffffffffffffffffffffff82036109a3576109a26108d4565b5b600182019050919050565b600081905092915050565b60006109c482610660565b6109ce81856109ae565b93506109de81856020860161067c565b80840191505092915050565b60006109f682856109b9565b9150610a0282846109b9565b91508190509392505050565b60008190508160005260206000209050919050565b60006020601f8301049050919050565b600082821b905092915050565b600060088302610a707fffffffffffffffffffffffffffffffffffffffffffffffffffffffffffffffff82610a33565b610a7a8683610a33565b95508019841693508086168417925050509392505050565b6000819050919050565b6000610ab7610ab2610aad8461062c565b610a92565b61062c565b9050919050565b6000819050919050565b610ad183610a9c565b610ae5610add82610abe565b848454610a40565b825550505050565b600090565b610afa610aed565b610b05818484610ac8565b505050565b5b81811015610b2957610b1e600082610af2565b600181019050610b0b565b5050565b601f821115610b6e57610b3f81610a0e565b610b4884610a23565b81016020851015610b57578190505b610b6b610b6385610a23565b830182610b0a565b50505b505050565b600082821c905092915050565b6000610b9160001984600802610b73565b1980831691505092915050565b6000610baa8383610b80565b9150826002028217905092915050565b610bc382610660565b67ffffffffffffffff811115610bdc57610bdb61040a565b5b610be682546107cb565b610bf1828285610b2d565b600060209050601f831160018114610c245760008415610c12578287015190505b610c1c8582610b9e565b865550610c84565b601f198416610c3286610a0e565b60005b82811015610c5a57848901518255600182019150602085019450602081019050610c35565b86831015610c775784890151610c73601f891682610b80565b8355505b6001600288020188555050505b50505050505056fea264697066735822122004ad9160aa8858b759dd737f60c6e6e01f66a1c401cb63bee39d66058ff7f56e64736f6c63430008150033",
  "immutableReferences": {},
  "source": "// SPDX-License-Identifier: MIT\npragma solidity ^0.8.0;\n\ncontract Chaines {\n    string private message;\n\n    function definirMessage(string memory nouveauMessage) public {\n        message = nouveauMessage;\n    }\n\n    function obtenirMessage() public view returns (string memory) {\n        return message;\n    }\n\n    function longueur(string memory texte) public pure returns (uint256) {\n        return bytes(texte).length;\n    }\n\n    function concatener(string memory a, string memory b) public pure returns (string memory) {\n        return string(abi.encodePacked(a, b));\n    }\n\n    function comparer(string memory a, string memory b) public pure returns (bool) {\n        return keccak256(bytes(a)) == keccak256(bytes(b));\n    }\n\n    function decouper(string memory texte, uint256 debut, uint256 fin) public pure returns (string memory) {\n        bytes memory source = bytes(texte);\n        require(debut <= fin, \"Indice debut invalide\");\n        require(fin <= source.length, \"Indice fin hors limites\");\n\n        bytes memory resultat = new bytes(fin - debut);\n        for (uint256 i = debut; i < fin; i++) {\n            resultat[i - debut] = source[i];\n        }\n        return string(resultat);\n    }\n}\n",
  "sourcePath": "C:\\Users\\HP\\Desktop\\DApp_tp3\\blockchain\\contracts\\Chaines.sol",
  "compiler": {
    "name": "solc",
    "version": "0.8.21+commit.d9974bed.Emscripten.clang"
  },
  "schemaVersion": "3.4.16",
  "updatedAt": "2026-05-30T09:33:32.889Z",
  "networkType": "ethereum",
  "devdoc": {
    "kind": "dev",
    "methods": {},
    "version": 1
  },
  "userdoc": {
    "kind": "user",
    "methods": {},
    "version": 1
  }
}