{
  "contractName": "Conversion",
  "abi": [
    {
      "inputs": [
        {
          "internalType": "uint256",
          "name": "montantWei",
          "type": "uint256"
        }
      ],
      "name": "weiEnEther",
      "outputs": [
        {
          "internalType": "uint256",
          "name": "",
          "type": "uint256"
        }
      ],
      "stateMutability": "pure",
      "type": "function",
      "constant": true
    },
    {
      "inputs": [
        {
          "internalType": "uint256",
          "name": "montantEther",
          "type": "uint256"
        }
      ],
      "name": "etherEnWei",
      "outputs": [
        {
          "internalType": "uint256",
          "name": "",
          "type": "uint256"
        }
      ],
      "stateMutability": "pure",
      "type": "function",
      "constant": true
    },
    {
      "inputs": [
        {
          "internalType": "uint256",
          "name": "montantWei",
          "type": "uint256"
        }
      ],
      "name": "weiEnGwei",
      "outputs": [
        {
          "internalType": "uint256",
          "name": "",
          "type": "uint256"
        }
      ],
      "stateMutability": "pure",
      "type": "function",
      "constant": true
    }
  ],
  "bytecode": "0x608060405234801561001057600080fd5b506102c2806100206000396000f3fe608060405234801561001057600080fd5b50600436106100415760003560e01c806318b5d6e514610046578063635ace3d14610076578063b5fcda34146100a6575b600080fd5b610060600480360381019061005b9190610164565b6100d6565b60405161006d91906101a0565b60405180910390f35b610090600480360381019061008b9190610164565b6100f3565b60405161009d91906101a0565b60405180910390f35b6100c060048036038101906100bb9190610164565b61010c565b6040516100cd91906101a0565b60405180910390f35b6000670de0b6b3a7640000826100ec9190610219565b9050919050565b6000633b9aca00826101059190610219565b9050919050565b6000670de0b6b3a764000082610122919061024a565b9050919050565b600080fd5b6000819050919050565b6101418161012e565b811461014c57600080fd5b50565b60008135905061015e81610138565b92915050565b60006020828403121561017a57610179610129565b5b60006101888482850161014f565b91505092915050565b61019a8161012e565b82525050565b60006020820190506101b56000830184610191565b92915050565b7f4e487b7100000000000000000000000000000000000000000000000000000000600052601260045260246000fd5b7f4e487b7100000000000000000000000000000000000000000000000000000000600052601160045260246000fd5b60006102248261012e565b915061022f8361012e565b92508261023f5761023e6101bb565b5b828204905092915050565b60006102558261012e565b91506102608361012e565b925082820261026e8161012e565b91508282048414831517610285576102846101ea565b5b509291505056fea26469706673582212202d8b63605486fdc698b932b7d6330fc88d685bac28401166dff1d3118043917564736f6c63430008150033",
  "immutableReferences": {},
  "source": "// SPDX-License-Identifier: MIT\npragma solidity ^0.8.0;\n\ncontract Conversion {\n    function weiEnEther(uint256 montantWei) public pure returns (uint256) {\n        return montantWei / 1 ether;\n    }\n\n    function etherEnWei(uint256 montantEther) public pure returns (uint256) {\n        return montantEther * 1 ether;\n    }\n\n    function weiEnGwei(uint256 montantWei) public pure returns (uint256) {\n        return montantWei / 1 gwei;\n    }\n}\n",
  "sourcePath": "C:\\Users\\HP\\Desktop\\DApp_tp3\\blockchain\\contracts\\Conversion.sol",
  "compiler": {
    "name": "solc",
    "version": "0.8.21+commit.d9974bed.Emscripten.clang"
  },
  "schemaVersion": "3.4.16",
  "updatedAt": "2026-05-30T09:33:32.877Z",
  "networkType": "ethereum",
  "devdoc": {
    "kind": "dev",
    "methods": {},
    "version": 1
  },
  "userdoc": {
    "kind": "user",
    "methods": {},
    "version": 1
  }
}