{
  "contractName": "Geometrie",
  "abi": [
    {
      "inputs": [
        {
          "internalType": "uint256",
          "name": "longueur",
          "type": "uint256"
        },
        {
          "internalType": "uint256",
          "name": "largeur",
          "type": "uint256"
        }
      ],
      "name": "definirRectangle",
      "outputs": [],
      "stateMutability": "nonpayable",
      "type": "function"
    },
    {
      "inputs": [],
      "name": "obtenirRectangle",
      "outputs": [
        {
          "internalType": "uint256",
          "name": "longueur",
          "type": "uint256"
        },
        {
          "internalType": "uint256",
          "name": "largeur",
          "type": "uint256"
        }
      ],
      "stateMutability": "view",
      "type": "function"
    },
    {
      "inputs": [],
      "name": "surface",
      "outputs": [
        {
          "internalType": "uint256",
          "name": "",
          "type": "uint256"
        }
      ],
      "stateMutability": "view",
      "type": "function"
    },
    {
      "inputs": [],
      "name": "perimetre",
      "outputs": [
        {
          "internalType": "uint256",
          "name": "",
          "type": "uint256"
        }
      ],
      "stateMutability": "view",
      "type": "function"
    },
    {
      "inputs": [
        {
          "internalType": "uint256",
          "name": "longueur",
          "type": "uint256"
        },
        {
          "internalType": "uint256",
          "name": "largeur",
          "type": "uint256"
        }
      ],
      "name": "calculerSurface",
      "outputs": [
        {
          "internalType": "uint256",
          "name": "",
          "type": "uint256"
        }
      ],
      "stateMutability": "pure",
      "type": "function"
    },
    {
      "inputs": [
        {
          "internalType": "uint256",
          "name": "longueur",
          "type": "uint256"
        },
        {
          "internalType": "uint256",
          "name": "largeur",
          "type": "uint256"
        }
      ],
      "name": "calculerPerimetre",
      "outputs": [
        {
          "internalType": "uint256",
          "name": "",
          "type": "uint256"
        }
      ],
      "stateMutability": "pure",
      "type": "function"
    }
  ],
  "bytecode": "0x608060405234801561001057600080fd5b506103a8806100206000396000f3fe608060405234801561001057600080fd5b50600436106100625760003560e01c80630e94ba8314610067578063741df1d014610085578063869a3ef2146100a3578063a35ee0a8146100c2578063b871a590146100f2578063d3a23b761461010e575b600080fd5b61006f61013e565b60405161007c9190610218565b60405180910390f35b61008d610159565b60405161009a9190610218565b60405180910390f35b6100ab610180565b6040516100b9929190610233565b60405180910390f35b6100dc60048036038101906100d7919061028d565b610196565b6040516100e99190610218565b60405180910390f35b61010c6004803603810190610107919061028d565b6101ac565b005b6101286004803603810190610123919061028d565b6101dd565b6040516101359190610218565b60405180910390f35b60008060010154600080015461015491906102fc565b905090565b60008060010154600080015461016f919061033e565b600261017b91906102fc565b905090565b6000806000800154600060010154915091509091565b600081836101a491906102fc565b905092915050565b6040518060400160405280838152602001828152506000808201518160000155602082015181600101559050505050565b600081836101eb919061033e565b60026101f791906102fc565b905092915050565b6000819050919050565b610212816101ff565b82525050565b600060208201905061022d6000830184610209565b92915050565b60006040820190506102486000830185610209565b6102556020830184610209565b9392505050565b600080fd5b61026a816101ff565b811461027557600080fd5b50565b60008135905061028781610261565b92915050565b600080604083850312156102a4576102a361025c565b5b60006102b285828601610278565b92505060206102c385828601610278565b9150509250929050565b7f4e487b7100000000000000000000000000000000000000000000000000000000600052601160045260246000fd5b6000610307826101ff565b9150610312836101ff565b9250828202610320816101ff565b91508282048414831517610337576103366102cd565b5b5092915050565b6000610349826101ff565b9150610354836101ff565b925082820190508082111561036c5761036b6102cd565b5b9291505056fea2646970667358221220bf6fbd95fd325a2f8fc3605c55ee1072fe69ef6b062fff524c64fc2d6542147364736f6c63430008150033",
  "immutableReferences": {},
  "source": "// SPDX-License-Identifier: MIT\npragma solidity ^0.8.0;\n\ncontract Geometrie {\n    struct Forme {\n        uint256 longueur;\n        uint256 largeur;\n    }\n\n    Forme private rectangle;\n\n    function definirRectangle(uint256 longueur, uint256 largeur) public {\n        rectangle = Forme(longueur, largeur);\n    }\n\n    function obtenirRectangle() public view returns (uint256 longueur, uint256 largeur) {\n        return (rectangle.longueur, rectangle.largeur);\n    }\n\n    function surface() public view returns (uint256) {\n        return rectangle.longueur * rectangle.largeur;\n    }\n\n    function perimetre() public view returns (uint256) {\n        return 2 * (rectangle.longueur + rectangle.largeur);\n    }\n\n    function calculerSurface(uint256 longueur, uint256 largeur) public pure returns (uint256) {\n        return longueur * largeur;\n    }\n\n    function calculerPerimetre(uint256 longueur, uint256 largeur) public pure returns (uint256) {\n        return 2 * (longueur + largeur);\n    }\n}\n",
  "sourcePath": "C:\\Users\\HP\\Desktop\\DApp_tp3\\blockchain\\contracts\\Geometrie.sol",
  "compiler": {
    "name": "solc",
    "version": "0.8.21+commit.d9974bed.Emscripten.clang"
  },
  "schemaVersion": "3.4.16",
  "updatedAt": "2026-05-30T10:14:40.374Z",
  "devdoc": {
    "kind": "dev",
    "methods": {},
    "version": 1
  },
  "userdoc": {
    "kind": "user",
    "methods": {},
    "version": 1
  }
}