{
  "contractName": "GlobalVars",
  "abi": [
    {
      "anonymous": false,
      "inputs": [
        {
          "indexed": true,
          "internalType": "address",
          "name": "expediteur",
          "type": "address"
        },
        {
          "indexed": false,
          "internalType": "uint256",
          "name": "montant",
          "type": "uint256"
        },
        {
          "indexed": false,
          "internalType": "uint256",
          "name": "total",
          "type": "uint256"
        }
      ],
      "name": "Depot",
      "type": "event"
    },
    {
      "inputs": [],
      "name": "dernierExpediteur",
      "outputs": [
        {
          "internalType": "address",
          "name": "",
          "type": "address"
        }
      ],
      "stateMutability": "view",
      "type": "function",
      "constant": true
    },
    {
      "inputs": [],
      "name": "dernierMontant",
      "outputs": [
        {
          "internalType": "uint256",
          "name": "",
          "type": "uint256"
        }
      ],
      "stateMutability": "view",
      "type": "function",
      "constant": true
    },
    {
      "inputs": [],
      "name": "totalDepots",
      "outputs": [
        {
          "internalType": "uint256",
          "name": "",
          "type": "uint256"
        }
      ],
      "stateMutability": "view",
      "type": "function",
      "constant": true
    },
    {
      "inputs": [],
      "name": "deposer",
      "outputs": [],
      "stateMutability": "payable",
      "type": "function",
      "payable": true
    },
    {
      "inputs": [],
      "name": "infosDernierDepot",
      "outputs": [
        {
          "internalType": "address",
          "name": "expediteur",
          "type": "address"
        },
        {
          "internalType": "uint256",
          "name": "montant",
          "type": "uint256"
        },
        {
          "internalType": "uint256",
          "name": "total",
          "type": "uint256"
        }
      ],
      "stateMutability": "view",
      "type": "function",
      "constant": true
    }
  ],
  "bytecode": "0x608060405234801561001057600080fd5b50610492806100206000396000f3fe60806040526004361061004a5760003560e01c80630f8fd4281461004f5780633f72b8141461007a57806342dc400f146100a55780638e4fee1c146100af578063bdd98a85146100da575b600080fd5b34801561005b57600080fd5b50610064610107565b604051610071919061027f565b60405180910390f35b34801561008657600080fd5b5061008f61010d565b60405161009c91906102db565b60405180910390f35b6100ad610131565b005b3480156100bb57600080fd5b506100c4610228565b6040516100d1919061027f565b60405180910390f35b3480156100e657600080fd5b506100ef61022e565b6040516100fe939291906102f6565b60405180910390f35b60015481565b60008054906101000a900473ffffffffffffffffffffffffffffffffffffffff1681565b60003411610174576040517f08c379a000000000000000000000000000000000000000000000000000000000815260040161016b906103b0565b60405180910390fd5b336000806101000a81548173ffffffffffffffffffffffffffffffffffffffff021916908373ffffffffffffffffffffffffffffffffffffffff1602179055503460018190555034600260008282546101cd91906103ff565b925050819055503373ffffffffffffffffffffffffffffffffffffffff167f7a82afe5ba7e297c54e8afd876ce56099263504fe6adbdaaadf63ce0b80b60ff3460025460405161021e929190610433565b60405180910390a2565b60025481565b60008060008060009054906101000a900473ffffffffffffffffffffffffffffffffffffffff16600154600254925092509250909192565b6000819050919050565b61027981610266565b82525050565b60006020820190506102946000830184610270565b92915050565b600073ffffffffffffffffffffffffffffffffffffffff82169050919050565b60006102c58261029a565b9050919050565b6102d5816102ba565b82525050565b60006020820190506102f060008301846102cc565b92915050565b600060608201905061030b60008301866102cc565b6103186020830185610270565b6103256040830184610270565b949350505050565b600082825260208201905092915050565b7f4c65206465706f7420646f69742065747265207375706572696575722061207a60008201527f65726f0000000000000000000000000000000000000000000000000000000000602082015250565b600061039a60238361032d565b91506103a58261033e565b604082019050919050565b600060208201905081810360008301526103c98161038d565b9050919050565b7f4e487b7100000000000000000000000000000000000000000000000000000000600052601160045260246000fd5b600061040a82610266565b915061041583610266565b925082820190508082111561042d5761042c6103d0565b5b92915050565b60006040820190506104486000830185610270565b6104556020830184610270565b939250505056fea2646970667358221220d0c314318a9eea46aca924efa4a1519bdae0431d3cb24a0113e2b114df4be82564736f6c63430008150033",
  "immutableReferences": {},
  "source": "// SPDX-License-Identifier: MIT\npragma solidity ^0.8.0;\n\ncontract GlobalVars {\n    address public dernierExpediteur;\n    uint256 public dernierMontant;\n    uint256 public totalDepots;\n\n    event Depot(address indexed expediteur, uint256 montant, uint256 total);\n\n    function deposer() public payable {\n        require(msg.value > 0, \"Le depot doit etre superieur a zero\");\n        dernierExpediteur = msg.sender;\n        dernierMontant = msg.value;\n        totalDepots += msg.value;\n        emit Depot(msg.sender, msg.value, totalDepots);\n    }\n\n    function infosDernierDepot() public view returns (address expediteur, uint256 montant, uint256 total) {\n        return (dernierExpediteur, dernierMontant, totalDepots);\n    }\n}\n",
  "sourcePath": "C:\\Users\\HP\\Desktop\\DApp_tp3\\blockchain\\contracts\\GlobalVars.sol",
  "compiler": {
    "name": "solc",
    "version": "0.8.21+commit.d9974bed.Emscripten.clang"
  },
  "schemaVersion": "3.4.16",
  "updatedAt": "2026-05-30T09:33:32.922Z",
  "networkType": "ethereum",
  "devdoc": {
    "kind": "dev",
    "methods": {},
    "version": 1
  },
  "userdoc": {
    "kind": "user",
    "methods": {},
    "version": 1
  }
}