{
  "contractName": "Parite",
  "abi": [
    {
      "anonymous": false,
      "inputs": [
        {
          "indexed": false,
          "internalType": "uint256",
          "name": "nombre",
          "type": "uint256"
        },
        {
          "indexed": false,
          "internalType": "bool",
          "name": "estPair",
          "type": "bool"
        },
        {
          "indexed": false,
          "internalType": "address",
          "name": "verificateur",
          "type": "address"
        }
      ],
      "name": "PariteVerifiee",
      "type": "event"
    },
    {
      "inputs": [
        {
          "internalType": "uint256",
          "name": "nombre",
          "type": "uint256"
        }
      ],
      "name": "verifierParite",
      "outputs": [
        {
          "internalType": "bool",
          "name": "",
          "type": "bool"
        }
      ],
      "stateMutability": "nonpayable",
      "type": "function"
    }
  ],
  "bytecode": "0x608060405234801561001057600080fd5b50610274806100206000396000f3fe608060405234801561001057600080fd5b506004361061002b5760003560e01c80639c2a121414610030575b600080fd5b61004a600480360381019061004591906100f4565b610060565b604051610057919061013c565b60405180910390f35b60008060006002846100729190610186565b1490507f4da2397351577ce802c9ed70575443c6cbc8f6e944f1ec6c7aca898f7013df698382336040516100a893929190610207565b60405180910390a180915050919050565b600080fd5b6000819050919050565b6100d1816100be565b81146100dc57600080fd5b50565b6000813590506100ee816100c8565b92915050565b60006020828403121561010a576101096100b9565b5b6000610118848285016100df565b91505092915050565b60008115159050919050565b61013681610121565b82525050565b6000602082019050610151600083018461012d565b92915050565b7f4e487b7100000000000000000000000000000000000000000000000000000000600052601260045260246000fd5b6000610191826100be565b915061019c836100be565b9250826101ac576101ab610157565b5b828206905092915050565b6101c0816100be565b82525050565b600073ffffffffffffffffffffffffffffffffffffffff82169050919050565b60006101f1826101c6565b9050919050565b610201816101e6565b82525050565b600060608201905061021c60008301866101b7565b610229602083018561012d565b61023660408301846101f8565b94935050505056fea264697066735822122085b2f4049cc0b36731a465a3574f7424df37f0c49a00d5007ded953ae0eb453d64736f6c63430008150033",
  "immutableReferences": {},
  "source": "// SPDX-License-Identifier: MIT\npragma solidity ^0.8.0;\n\ncontract Parite {\n    event PariteVerifiee(uint256 nombre, bool estPair, address verificateur);\n\n    function verifierParite(uint256 nombre) public returns (bool) {\n        bool estPair = nombre % 2 == 0;\n        emit PariteVerifiee(nombre, estPair, msg.sender);\n        return estPair;\n    }\n}\n",
  "sourcePath": "C:\\Users\\HP\\Desktop\\DApp_tp3\\blockchain\\contracts\\Parite.sol",
  "compiler": {
    "name": "solc",
    "version": "0.8.21+commit.d9974bed.Emscripten.clang"
  },
  "schemaVersion": "3.4.16",
  "updatedAt": "2026-05-30T10:14:40.380Z",
  "devdoc": {
    "kind": "dev",
    "methods": {},
    "version": 1
  },
  "userdoc": {
    "kind": "user",
    "methods": {},
    "version": 1
  }
}