{
  "contractName": "Signe",
  "abi": [
    {
      "inputs": [
        {
          "internalType": "int256",
          "name": "nombre",
          "type": "int256"
        }
      ],
      "name": "verifierSigne",
      "outputs": [
        {
          "internalType": "string",
          "name": "",
          "type": "string"
        }
      ],
      "stateMutability": "pure",
      "type": "function",
      "constant": true
    }
  ],
  "bytecode": "0x608060405234801561001057600080fd5b5061027c806100206000396000f3fe608060405234801561001057600080fd5b506004361061002b5760003560e01c80632aef951014610030575b600080fd5b61004a60048036038101906100459190610167565b610060565b6040516100579190610224565b60405180910390f35b606060008213156100a8576040518060400160405280600781526020017f506f7369746966000000000000000000000000000000000000000000000000008152509050610127565b60008212156100ee576040518060400160405280600781526020017f4e656761746966000000000000000000000000000000000000000000000000008152509050610127565b6040518060400160405280600381526020017f4e756c000000000000000000000000000000000000000000000000000000000081525090505b919050565b600080fd5b6000819050919050565b61014481610131565b811461014f57600080fd5b50565b6000813590506101618161013b565b92915050565b60006020828403121561017d5761017c61012c565b5b600061018b84828501610152565b91505092915050565b600081519050919050565b600082825260208201905092915050565b60005b838110156101ce5780820151818401526020810190506101b3565b60008484015250505050565b6000601f19601f8301169050919050565b60006101f682610194565b610200818561019f565b93506102108185602086016101b0565b610219816101da565b840191505092915050565b6000602082019050818103600083015261023e81846101eb565b90509291505056fea26469706673582212200a8df07d0685ddbb1c153c44388943337780d41d769c37746baf59241acdc2ac64736f6c63430008150033",
  "immutableReferences": {},
  "source": "// SPDX-License-Identifier: MIT\npragma solidity ^0.8.0;\n\ncontract Signe {\n    function verifierSigne(int256 nombre) public pure returns (string memory) {\n        if (nombre > 0) {\n            return \"Positif\";\n        }\n        if (nombre < 0) {\n            return \"Negatif\";\n        }\n        return \"Nul\";\n    }\n}\n",
  "sourcePath": "C:\\Users\\HP\\Desktop\\DApp_tp3\\blockchain\\contracts\\Signe.sol",
  "compiler": {
    "name": "solc",
    "version": "0.8.21+commit.d9974bed.Emscripten.clang"
  },
  "schemaVersion": "3.4.16",
  "updatedAt": "2026-05-30T09:33:32.898Z",
  "networkType": "ethereum",
  "devdoc": {
    "kind": "dev",
    "methods": {},
    "version": 1
  },
  "userdoc": {
    "kind": "user",
    "methods": {},
    "version": 1
  }
}