{
  "contractName": "Tableaux",
  "abi": [
    {
      "inputs": [
        {
          "internalType": "uint256",
          "name": "nombre",
          "type": "uint256"
        }
      ],
      "name": "ajouter",
      "outputs": [],
      "stateMutability": "nonpayable",
      "type": "function"
    },
    {
      "inputs": [
        {
          "internalType": "uint256",
          "name": "index",
          "type": "uint256"
        }
      ],
      "name": "lire",
      "outputs": [
        {
          "internalType": "uint256",
          "name": "",
          "type": "uint256"
        }
      ],
      "stateMutability": "view",
      "type": "function"
    },
    {
      "inputs": [],
      "name": "taille",
      "outputs": [
        {
          "internalType": "uint256",
          "name": "",
          "type": "uint256"
        }
      ],
      "stateMutability": "view",
      "type": "function"
    },
    {
      "inputs": [],
      "name": "obtenirTout",
      "outputs": [
        {
          "internalType": "uint256[]",
          "name": "",
          "type": "uint256[]"
        }
      ],
      "stateMutability": "view",
      "type": "function"
    }
  ],
  "bytecode": "0x608060405234801561001057600080fd5b5061042b806100206000396000f3fe608060405234801561001057600080fd5b506004361061004c5760003560e01c806365bc735714610051578063bbb6c8551461006d578063e8a38d531461008b578063f59b5b2b146100a9575b600080fd5b61006b60048036038101906100669190610212565b6100d9565b005b610075610105565b60405161008291906102fd565b60405180910390f35b61009361015d565b6040516100a0919061032e565b60405180910390f35b6100c360048036038101906100be9190610212565b610169565b6040516100d0919061032e565b60405180910390f35b600081908060018154018082558091505060019003906000526020600020016000909190919091505550565b6060600080548060200260200160405190810160405280929190818152602001828054801561015357602002820191906000526020600020905b81548152602001906001019080831161013f575b5050505050905090565b60008080549050905090565b6000808054905082106101b1576040517f08c379a00000000000000000000000000000000000000000000000000000000081526004016101a8906103a6565b60405180910390fd5b600082815481106101c5576101c46103c6565b5b90600052602060002001549050919050565b600080fd5b6000819050919050565b6101ef816101dc565b81146101fa57600080fd5b50565b60008135905061020c816101e6565b92915050565b600060208284031215610228576102276101d7565b5b6000610236848285016101fd565b91505092915050565b600081519050919050565b600082825260208201905092915050565b6000819050602082019050919050565b610274816101dc565b82525050565b6000610286838361026b565b60208301905092915050565b6000602082019050919050565b60006102aa8261023f565b6102b4818561024a565b93506102bf8361025b565b8060005b838110156102f05781516102d7888261027a565b97506102e283610292565b9250506001810190506102c3565b5085935050505092915050565b60006020820190508181036000830152610317818461029f565b905092915050565b610328816101dc565b82525050565b6000602082019050610343600083018461031f565b92915050565b600082825260208201905092915050565b7f496e64657820686f7273206c696d697465730000000000000000000000000000600082015250565b6000610390601283610349565b915061039b8261035a565b602082019050919050565b600060208201905081810360008301526103bf81610383565b9050919050565b7f4e487b7100000000000000000000000000000000000000000000000000000000600052603260045260246000fdfea2646970667358221220cbeb3d5178d76f881c317466264a2ef015190468ea4432183bed8dc551bc5fd764736f6c63430008150033",
  "immutableReferences": {},
  "source": "// SPDX-License-Identifier: MIT\npragma solidity ^0.8.0;\n\ncontract Tableaux {\n    uint256[] private nombres;\n\n    function ajouter(uint256 nombre) public {\n        nombres.push(nombre);\n    }\n\n    function lire(uint256 index) public view returns (uint256) {\n        require(index < nombres.length, \"Index hors limites\");\n        return nombres[index];\n    }\n\n    function taille() public view returns (uint256) {\n        return nombres.length;\n    }\n\n    function obtenirTout() public view returns (uint256[] memory) {\n        return nombres;\n    }\n}\n",
  "sourcePath": "C:\\Users\\HP\\Desktop\\DApp_tp3\\blockchain\\contracts\\Tableaux.sol",
  "compiler": {
    "name": "solc",
    "version": "0.8.21+commit.d9974bed.Emscripten.clang"
  },
  "schemaVersion": "3.4.16",
  "updatedAt": "2026-05-30T10:14:40.387Z",
  "devdoc": {
    "kind": "dev",
    "methods": {},
    "version": 1
  },
  "userdoc": {
    "kind": "user",
    "methods": {},
    "version": 1
  }
}